:020000040800F2
:1000000000000220790A0008810A0008830A00081B
:10001000850A0008870A0008890A00080000000015
:10002000000000000000000000000000C1090008FE
:100030008D0A0008000000004D0A00085D0A000853
:10004000930A0008930A0008930A0008930A00081C
:10005000930A0008930A0008930A0008930A00080C
:10006000930A0008930A0008930A0008930A0008FC
:10007000930A0008930A0008930A0008930A0008EC
:10008000930A0008930A0008930A00082D37000815
:100090000D370008930A00081D370008930A00086E
:1000A000930A0008930A0008930A0008930A0008BC
:1000B000930A0008930A0008930A0008930A0008AC
:1000C000930A0008930A0008930A0008930A00089C
:1000D000930A0008930A0008930A0008930A00088C
:1000E000930A0008930A0008930A0008930A00087C
:1000F000930A0008930A0008930A0008930A00086C
:10010000930A0008930A0008930A0008930A00085B
:10011000930A0008930A0008930A0008930A00084B
:10012000930A0008930A0008930A0008930A00083B
:10013000930A000800000000000000005D3700087E
:100140003D370008930A00084D370008930A00085D
:10015000930A0008930A0008930A0008930A00080B
:10016000930A0008930A0008930A0008930A0008FB
:10017000930A0008930A0008930A00080000000090
:1001800000000000930A00080000000000000000CA
:10019000930A00080000000000000000930A000815
:1001A000000000000000000000000000930A0008AA
:1001B000930A0008930A0008930A0008930A0008AB
:1001C000930A000800F002F807F020FC0AA090E86B
:1001D000000C82448344AAF10107DA4501D107F0FB
:1001E00015FCAFF2090EBAE80F0013F0010F18BFAB
:1001F000FB1A43F0010318474CDD00006CDD0000E2
:100200000A4410F8014B14F00F0508BF10F8015B09
:10021000240908BF10F8014B6D1E05D010F8013BF2
:100220006D1E01F8013BF9D1641E03D0641E01F874
:10023000015BFBD19142E4D370470000002300240E
:1002400000250026103A28BF78C1FBD8520728BFE6
:1002500030C148BF0B6070476E2901F0AA82702937
:1002600000F02B8666290CF09D8765290CF09A8793
:1002700067290CF0978761290CF0968703681B0AA1
:1002800028BF41F08001692900F09C85642900F0B5
:100290009985752900F096856F2901F0A685782942
:1002A00000F0F785E92901F04185E42901F03E8558
:1002B000F52901F03B85EF2901F0A385F82900F02D
:1002C000F6850368DB0928BF41F08001632901F04E
:1002D000C284732901F0C784E32902F01184F32951
:1002E00002F01684002070471FB50CF056FF9DE801
:1002F000030001F0BBF901F09CF90400002000218B
:100300000CF05CFD401C6060002000210CF06CFDD6
:10031000E06002F0B1F801F05FF91FBD0246D2E8DB
:100320004F0FC2E8431F03B1F9E77047024652E896
:10033000000F40EA010042E8000303B1F7E770470D
:1003400010B5024652E8000F20EA010442E80043DB
:1003500003B1F7E710BD10B5024652E8000F00EAFE
:1003600001048C4203D0BFF32F8F002010BD20EA80
:10037000010442E8004303B1EFE710BD10B50246A7
:1003800052E8000F084203D1BFF32F8F002010BDA9
:1003900020EA010442E8004303B1F1E710BD024640
:1003A00052E8000F411C42E8001303B1F8E7704720
:1003B00010B5024652E8000F814202D8BFF32F8FDA
:1003C00010BD441C42E8004303B1F3E710BD10B573
:1003D0000246D2E85F0F814202D8BFF32F8F10BDD3
:1003E000441CC2E8534F03B1F3E710BD10B50246F9
:1003F000D2E85F0F441CA14200D80024C2E8534F4A
:1004000003B1F5E710BD024652E8000F10B9BFF383
:100410002F8F7047411E42E8001303B1F4E7704785
:100420000246D2E85F0F10B9BFF32F8F7047411E0D
:10043000C2E8531F03B1F4E77047024652E8000FC9
:1004400010B9BFF32F8F7047016842E8001303B162
:10045000F4E7704702680A60BFF35F8F50E8002F2F
:100460000B689342F6D140E8001303B1F2E77047FE
:100470000246D2E84F0FC2E8431F03B1F9E77047C5
:10048000024652E8000F40EA010042E8000303B1CF
:10049000F7E7704710B5024652E8000F20EA010462
:1004A00042E8004303B1F7E710BD10B5024652E839
:1004B000000F00EA01048C4203D0BFF32F8F00200D
:1004C00010BD20EA010442E8004303B1EFE710BD8C
:1004D00010B5024652E8000F084203D1BFF32F8F38
:1004E000002010BD20EA010442E8004303B1F1E717
:1004F00010BD024652E8000F411C42E8001303B150
:10050000F8E7704710B5024652E8000F814202D862
:10051000BFF32F8F10BD441C42E8004303B1F3E743
:1005200010BD10B50246D2E85F0F814202D8BFF37A
:100530002F8F10BD441CC2E8534F03B1F3E710BD29
:1005400010B50246D2E85F0F441CA14200D8002437
:10055000C2E8534F03B1F5E710BD024652E8000F61
:1005600010B9BFF32F8F7047411E42E8001303B14B
:10057000F4E770470246D2E85F0F10B9BFF32F8F40
:100580007047411EC2E8531F03B1F4E770470246AB
:1005900052E8000F10B9BFF32F8F7047016842E88F
:1005A000001303B1F4E7704702680A60BFF35F8F7E
:1005B00050E8002F0B689342F6D140E8001303B1D6
:1005C000F2E770470246D2E84F0FC2E8431F03B17B
:1005D000F9E77047024652E8000F40EA010042E89E
:1005E000000303B1F7E7704710B5024652E8000F69
:1005F00020EA010442E8004303B1F7E710BD10B55B
:10060000024652E8000F00EA01048C4203D0BFF317
:100610002F8F002010BD20EA010442E8004303B1FF
:10062000EFE710BD10B5024652E8000F084203D1B3
:10063000BFF32F8F002010BD20EA010442E80043E1
:1006400003B1F1E710BD024652E8000F411C42E839
:10065000001303B1F8E7704710B5024652E8000FE7
:10066000814202D8BFF32F8F10BD441C42E80043E3
:1006700003B1F3E710BD10B50246D2E85F0F814227
:1006800002D8BFF32F8F10BD441CC2E8534F03B1F3
:10069000F3E710BD10B50246D2E85F0F441CA1423B
:1006A00000D80024C2E8534F03B1F5E710BD02465D
:1006B00052E8000F10B9BFF32F8F7047411E42E878
:1006C000001303B1F4E770470246D2E85F0F10B998
:1006D000BFF32F8F7047411EC2E8531F03B1F4E7E9
:1006E0007047024652E8000F10B9BFF32F8F7047D2
:1006F000016842E8001303B1F4E7704702680A603A
:10070000BFF35F8F50E8002F0B689342F6D140E8AB
:10071000001303B1F2E770470246D2E84F0FC2E878
:10072000431F03B1F9E77047024652E8000F40EA61
:10073000010042E8000303B1F7E7704710B5024635
:1007400052E8000F20EA010442E8004303B1F7E752
:1007500010BD10B5024652E8000F00EA01048C42B9
:1007600003D0BFF32F8F002010BD20EA010442E820
:10077000004303B1EFE710BD10B5024652E8000F89
:10078000084203D1BFF32F8F002010BD20EA0104DF
:1007900042E8004303B1F1E710BD024652E8000F02
:1007A000411C42E8001303B1F8E7704710B5024658
:1007B00052E8000F814202D8BFF32F8F10BD441CB6
:1007C00042E8004303B1F3E710BD10B50246D2E89A
:1007D0005F0F814202D8BFF32F8F10BD441CC2E8C7
:1007E000534F03B1F3E710BD10B50246D2E85F0FD7
:1007F000441CA14200D80024C2E8534F03B1F5E7DE
:1008000010BD024652E8000F10B9BFF32F8F70479A
:10081000411E42E8001303B1F4E770470246D2E8F4
:100820005F0F10B9BFF32F8F7047411EC2E8531FEF
:1008300003B1F4E77047024652E8000F10B9BFF366
:100840002F8F7047016842E8001303B1F4E7704747
:1008500002680A60BFF35F8F50E8002F0B68934275
:10086000F6D140E8001303B1F2E770470246D2E840
:100870004F0FC2E8431F03B1F9E77047024652E841
:10088000000F40EA010042E8000303B1F7E77047B8
:1008900010B5024652E8000F20EA010442E8004386
:1008A00003B1F7E710BD10B5024652E8000F00EAA9
:1008B00001048C4203D0BFF32F8F002010BD20EA2B
:1008C000010442E8004303B1EFE710BD10B5024652
:1008D00052E8000F084203D1BFF32F8F002010BD54
:1008E00020EA010442E8004303B1F1E710BD0246EB
:1008F00052E8000F411C42E8001303B1F8E77047CB
:1009000010B5024652E8000F814202D8BFF32F8F84
:1009100010BD441C42E8004303B1F3E710BD10B51D
:100920000246D2E85F0F814202D8BFF32F8F10BD7D
:10093000441CC2E8534F03B1F3E710BD10B50246A3
:10094000D2E85F0F441CA14200D80024C2E8534FF4
:1009500003B1F5E710BD024652E8000F10B9BFF32E
:100960002F8F7047411E42E8001303B1F4E7704730
:100970000246D2E85F0F10B9BFF32F8F7047411EB8
:10098000C2E8531F03B1F4E77047024652E8000F74
:1009900010B9BFF32F8F7047016842E8001303B10D
:1009A000F4E7704702680A60BFF35F8F50E8002FDA
:1009B0000B689342F6D140E8001303B1F2E77047A9
:1009C000EFF30980816911F8021C91BB01B590E831
:1009D0000F10E047BDE800508CE80300234B93E87C
:1009E0000600914208BF704741B91EF0100F10D1A8
:1009F0001F49086820F0010008600AE02CE9F00FA8
:100A00001EF0100F08BF2CED108AC1F838C081F815
:100A100022E01A6092F82210906B61F0FF0E1EF037
:100A2000100F08BFB0EC108AB0E8F00F80F309880F
:100A3000704710B50F4A1368994206D852F8214002
:100A40000FC8A047EFF30984206010BD10B508F06F
:100A5000A5FFBDE81040EFF3098CBFE710B509F022
:100A60005FFABDE81040EFF3098CB7E7A40A002055
:100A700034EF00E028D900080648804706480047C0
:100A8000FEE7FEE7FEE7FEE7FEE7FEE7FEE7FEE73E
:100A9000FEE7FEE739560008C501000810B500F072
:100AA000C8FD001D10BD00BF15C3000007F06CB8E5
:100AB0000B3020F0070070472DE9F04117460E4635
:100AC0000446FFF7F5FFA042054633D9002F1CBFAF
:100AD00006F10C0007F0D6F830467468F4B12168CE
:100AE000A94217D305F1080291423CBF61684160F9
:100AF00007D3626861194A602268521B0A6041602C
:100B00002560002F1CBF06F10C0007F03FF9201DE7
:100B1000BDE8F08120466468002CE0D129463046CB
:100B200000F090FD0028D7D1002F1CBF06F10C006B
:100B300007F02CF90020BDE8F08110B5044600F064
:100B400073FD01682046BDE810400122B4E770B58E
:100B500016460D46041F002808BF70BD002E1CBF9E
:100B600005F10C0007F08EF82B465868002818BFD6
:100B7000A04238BF0346F8D31968CA18A24218BF6A
:100B80005C6003D122681C461144196021680A196F
:100B9000824218BF606004D1426862600068084405
:100BA0002060002E1CBF05F10C0007F0EFF870BDAF
:100BB00010B5044600F038FD01682046BDE810403D
:100BC0000122C4E753EA020C00F069802DE9F04BE2
:100BD0004FF00006002B1FBFB3FA83F503FA05F4AC
:100BE00024FA05F65E4012BF1643B2FA82F502FA05
:100BF00005F4C5F120051EBF22FA05FC44EA0C04E9
:100C0000203556EA044C4FEA144418BF641C4FF0D8
:100C100000084FF00009904271EB030C39D3002912
:100C200019BFB1FA81F701FA07F6B0FA80F700FAB6
:100C300007F6C7F120071EBF20FA07FC46EA0C069C
:100C40002037B6FBF4FCA7EB0507103F07F01F0B9E
:100C5000CBF120060CFA0BFB2CFA06F644BFB34688
:100C60000026202FA4BF5E464FF0000B5BEA060C67
:100C700008BF4FF0010B19EB0B09ABFB027C48EBF3
:100C80000608C01B06FB02CC0BFB03CC71EB0C016E
:100C9000C1E70B46024641464846BDE8F08B13B516
:100CA0004FF000004FF00001AFF30080BDE81C40A2
:100CB0007047B2F120030AD5C2F1200301FA02F114
:100CC00020FA03F300FA02F041EA0301704700FA48
:100CD00003F14FF0000070470B460146184601F043
:100CE000E5BE00007CB51D4616460C00009001D004
:100CF0002044401E074B7B442A46694601903046FB
:100D000000F07FFF05461CB10020694600F08CFF13
:100D100028467CBD390F00000B460146184601F0FD
:100D2000C5BE70B5044685690068C10601D5302688
:100D300000E02026C00707D070BDD4E9012130466D
:100D40009047206A401C20626D1EF6D570BD70B5BC
:100D5000044685690078C00707D170BDD4E9012138
:100D600020209047206A401C20626D1EF6D570BD81
:100D700070B50C460546012A05D02878800600D5B6
:100D8000EA69002302E0012305E05B1C934202D2E2
:100D9000E05C0028F9D1A869E618C01AA861286AA1
:100DA000184428622846FFF7BCFF04E0D5E901217A
:100DB00014F8010B9047B442F8D32846FFF7C7FF59
:100DC00070BD00002DE9F041064600241068752929
:100DD000314616A510D000F081FC002802DA40420E
:100DE00013A507E031688A0701D512A502E049077B
:100DF00004D511A5012401E000F079FC00210A22AC
:100E000006F1240709E0B0FBF2FCB0FBF2F302FBB1
:100E10001C00303078541846491C0028F3D1234672
:100E20002A463046BDE8F04100F06ABC00000000F0
:100E30002D0000002B00000020000000F0B40D4643
:100E40000188090502D5214C7C4402E01F4C7C44FA
:100E50000E34002100F1240608E002F00F07120909
:100E6000E75D42EA03721B097754491C52EA030703
:100E7000F3D102780023120704D5702D06D009B1F2
:100E8000022311342246F0BC00F03ABC0123103496
:100E9000F8E770B504460D462146106800F027FCBF
:100EA000024629462046BDE870400023C6E7D21D11
:100EB00022F00703D3E90023C0E70368126843F078
:100EC000200303600823C3610023B7E708CB0000B9
:100ED0002DE9F05F894604464FF0000ADFF874B14F
:100EE000FB44C0F820A02046E1688847002874D061
:100EF000252806D0D4E901219047206A401C2062B1
:100F0000F1E700265F462046E1688847202805462D
:100F100007DB312D05D2781910F8200C08B10643F3
:100F2000F1E7B00701D526F00406C4F81CA000279D
:100F3000C4F818A02A2D09D0284606F088FE38B338
:100F400004EB8708303DC8F8185019E059F8041B25
:100F5000204604EB87029161E1688847012F05462E
:100F600018D1E069002820DA26F020061DE0D8F824
:100F7000180000EB800005EB40003038C8F818007E
:100F80002046E1688847054606F061FE0028EED15C
:100F9000012F0AD02E2D08D12046E16888477F1CFA
:100FA0000546022F46F02006C4DBA069002803DABC
:100FB000404246F00106A061F00701D026F010067D
:100FC0006C2D0BD0682D09D04C2D39D06A2D35D021
:100FD000742D35D07A2D33D016E038E0E1682F46F5
:100FE00020468847B842054609D16C2F26D04FF4D9
:100FF0008060E168064320468847054604E06C2F80
:101000001AD04FF4807006430DB3A5F141001928A2
:1010100002D8203546F400664A4629462046266016
:101020004E46FFF719F980B101280BD0F61D26F0C6
:10103000070000F1080956E74020E4E78020D8E7E0
:101040000020D6E706F104094DE7284652E7206A5A
:10105000BDE8F09F98CA000011B14FF4807201E022
:101060004FF480624FF4007301F0D2B92DE9F047DC
:1010700004464FF000094FF0FF37C568D4E90486F5
:10108000A80707D0204601F07FF9304606F08CFE15
:10109000002802DA3846BDE8F087280502D5404628
:1010A000FFF786FD4C21204600F02BFA206D20F042
:1010B000010020654846EEE770B5044600F14C0596
:1010C000284606F0DFFD204607F0C6FB044628460A
:1010D00006F05CFE204670BD70B505460A4E3046EF
:1010E00006F0D0FD05F14C04204606F0CBFD284665
:1010F000FFF7BCFF0546204606F048FE304606F0E6
:1011000045FE284670BD00008C0A00202DE9F04104
:10111000044600F14C07384606F0B4FDE06881074C
:1011200012D0800601D5A66A04E0A169606808446F
:101130002169461A204601F027F90022054631466A
:10114000204601F071F800E00025384606F01EFE4A
:101150002846BDE8F0812DE9F04118B1BDE8F04125
:10116000FFF7D4BF0B4E0025304606F08BFD0A4C2E
:101170006F1E07E02046FFF7C9FF00B13D46206D16
:1011800020F00104002CF5D1304606F0FFFD284682
:10119000DFE700008C0A0020A82600202DE9F04798
:1011A00016468846814602F14C07384606F06AFD2D
:1011B0003046FFF75BFF18F8010B61280AD0722850
:1011C00002D077283FD102E00125002405E0022566
:1011D000042402E0082448F2020518F8010B2B2829
:1011E00006D0622809D018F8010C74280AD00BE048
:1011F00045F0030544F00204EFE745F0040544F030
:101200000104EAE744F010044846214606F040FE97
:10121000411C18D00021316171604FF40071F560FC
:10122000F1617061200704D530460222002100F0F0
:10123000FBFF306D40F001003065384606F0A6FD3A
:101240003046BDE8F0870026F7E72DE9F041154666
:101250000E460746204C204606F014FD2A4631462D
:101260003846FFF79BFF0546204606F08FFD2846CF
:10127000BDE8F0812DE9F0410E468046164D284626
:1012800006F000FD154C206DC10704D0410804D0C4
:1012900020F00104F7E7224612E05420FFF74DFC4E
:1012A000070017D0206D47F0010108435421206545
:1012B000384600F026F907F14C0006F0F5FC3A46F6
:1012C00031464046FFF76AFF0446284606F05EFDB9
:1012D0002046CDE70024F8E78C0A0020A82600204D
:1012E00030B503461D783DB10A4612F8014B1CB1DA
:1012F000AC42FAD15B1CF5E7181A30BD10B5431C9F
:1013000002E010F8011B71B18107FAD14FF00132F0
:1013100002C88C1A8C4314EAC211F9D0C01A0A060A
:1013200003D0C01E10BDC01A10BD0A0401D0801E1B
:1013300010BD0902FCD0401E10BD40EA010370B58B
:101340009B072ED14FF00136042A2AD308C810C9B2
:101350009D1B9D43121F15EAC61517D0D8B2E1B2E6
:10136000401A50EA056110D198B2A1B2401A50EA71
:1013700005410AD123F07F4024F07F41401A50EA12
:10138000052102D1180EA0EB146070BDA342DBD082
:1013900018BA21BA884201D9012070BD4FF0FF3040
:1013A00070BD0AB9002070BD10F8013B11F8014B67
:1013B00063B1A3420AD1521E08D010F8013B11F8C4
:1013C000014B1BB1A34201D1521EEDD1181B70BDC0
:1013D000032A40F2308010F0030C00F0158011F861
:1013E000013BBCF1020F624498BF11F801CB00F839
:1013F000013B38BF11F8013BA2F1040298BF00F88D
:1014000001CB38BF00F8013B11F0030300F0258049
:10141000083AC0F0088051F8043B083A51F804CB70
:10142000A0E80810F5E7121D5CBF51F8043B40F836
:10143000043BAFF30080D20724BF11F8013B11F841
:1014400001CB48BF11F8012B24BF00F8013B00F885
:1014500001CB48BF00F8012B704710B5203AC0F00F
:101460000B80B1E81850203AA0E81850B1E81850A5
:10147000A0E81850BFF4F5AF5FEA027C24BFB1E8E2
:101480001850A0E8185044BF18C918C0BDE8104053
:101490005FEA827C24BF51F8043B40F8043B08BF5C
:1014A0007047D20728BF31F8023B48BF11F8012B23
:1014B00028BF20F8023B48BF00F8012B70474FF0CF
:1014C00000020429C0F0128010F0030C00F01B8011
:1014D000CCF1040CBCF1020F18BF00F8012BA8BF1F
:1014E00020F8022BA1EB0C0100F00DB85FEAC17CE3
:1014F00024BF00F8012B00F8012B48BF00F8012B96
:1015000070474FF0000200B51346944696462039C6
:1015100022BFA0E80C50A0E80C50B1F12001BFF4AC
:10152000F7AF090728BFA0E80C5048BF0CC05DF812
:1015300004EB890028BF40F8042B08BF704748BF60
:1015400020F8022B11F0804F18BF00F8012B7047D4
:101550004FF0013C50F8042B51F8043B9A4221D142
:10156000A2EB0C03934313EACC1317D150F8042BCE
:1015700051F8043B9A4215D1A2EB0C03934313EAB2
:10158000CC130BD150F8042B51F8043B9A4209D1EB
:10159000A2EB0C03934313EACC13DBD04FF0000013
:1015A000704700BFD01A01BAB1FA81F101F01801F9
:1015B00022FA01F0CB40C1F12001DBB2C0B2C01A67
:1015C0002CFA01F3D11A914311EAC311E6D1704705
:1015D000704770477047000070B5064C7C44064D5C
:1015E0007D4403E0206820448047241DAC42F9D1AB
:1015F00070BD0000B0CA0000B4CA00002DE9F0417F
:1016000017460E46054633B107FB0354E41B20463C
:10161000B047A542FAD1A5F10800BDE8F08100006D
:1016200000487047A427002010B5FFF7F9FF0830E5
:1016300010BD10B5FFF7F4FF203010BD70477047A4
:101640007047704738B504460A4600206946AFF334
:101650000080002808BF38BD02460099204601F0EE
:1016600003F8012038BD012001F044BBF8B5AFF309
:101670000080054600200C46102000BF0646A81931
:10168000A0420DD9324669460020AFF30080070022
:1016900008BF01F02FFB0098A04218BF0546C419EF
:1016A000FFF7C2FF05600746F01D20F0070046194E
:1016B000284600F00AF8B44208BFF8BDA21B314624
:1016C0003868BDE8F84000F0CFBF00210160C0E9F4
:1016D00001100C3006F0E8BA1020704709684A057E
:1016E00001D540B27047C905FCD500B27047096802
:1016F0004A0501D5C0B27047C905FCD580B2704714
:101700002DE9F0470D4699469246044600F124081B
:101710000168880604D5E06921F01001216000E02D
:101720000120A84201DD471B00E00027A1697A19CA
:1017300002EB0900081AA0612078C00602D42046F6
:10174000FFF7EFFA002608E0D4E901211AF80600B5
:101750009047206A401C761C20624E45F4DB2078BE
:10176000C0060AD52046FFF7DCFA06E0D4E90121DD
:1017700030209047206A401C2062381EA7F10107E4
:10178000F4DC07E0D4E9012118F805009047206A4D
:10179000401C2062281EA5F10105F3DC2046FFF75E
:1017A000D6FA2078000602D50220BDE8F087012095
:1017B000FBE711680268006A530501D508700AE06A
:1017C000D30501D5088006E0130603D5C217C1E989
:1017D000000200E008600120704770472DE9FF4FCC
:1017E0000C461E464FF0FF378BB0D2E90001DDF802
:1017F00060800A908A46C1F30A5505B93D4600212A
:1018000008464FF00000BAF1000F00F4400005DA7E
:1018100000EB80004FF4400101EA50004FEA90597C
:10182000B9F1010F00DDB9460A9850EA4A000ED01E
:1018300044F61050A5F2FF3545432F14B8F1000FC0
:101840001ED07542291E1EDDC9F100021CE0B8F150
:10185000010F4FF0000001D0302103E0F24305E01A
:101860002154401CB042FBDB3046002200212154B1
:101870000B99C1F80880C1E900200FB0BDE8F08FD6
:10188000BD1B6D1CDEE74A4600DA694206A801F07E
:1018900043F906AB93E8070003AB83E80700504623
:1018A0000A9901F0B0FA8DE80700A0F500501F3842
:1018B00000900398002D0ADD42F21F014A460844B9
:1018C000002303A90390684601F019FD09E0A0F583
:1018D00000504A461F38002303A90390684601F0D0
:1018E00023FD8DE807000004000C03D04FF0FF300B
:1018F000410800E01046B8F1000F03D0002200922A
:1019000015461EE0751E05D400F0CDFE303262553E
:101910006D1EF9D5B3460122084302D000227F1C78
:1019200004E02078302801D100227F1E002A099788
:1019300084D01DE0112D07DA00F0B5FE303262557B
:101940006D1C50EA0102F5D1084302D00098C8B1DD
:101950000EE00021681E05E0235C625C63542254A3
:10196000401E491C8142F7DBAB46A81B401E099074
:10197000002004F80B000B98099AC0F80880C0E911
:10198000002B7AE711264FF0000857E72DE9F04FBA
:1019900088460446D21D22F0070191B0D1E900012A
:1019A000CDE90A0105F09CFF02460B98C00F01D05B
:1019B0002D2007E02068810701D52B2002E020219F
:1019C00001EAC000032A099001D0072A05DB03467B
:1019D0004146204601F02AF80BE12078800601D527
:1019E000E06900E00620B8F1650F814606D0B8F145
:1019F000660F18D0B8F1670F70D131E00020B9F14F
:101A0000110F009001DB112301E009F101030AAA83
:101A100001A90CA8FFF7E2FEDDE90C70002609F130
:101A20000105834647E001204B4600904FF00047F8
:101A30000AAA01A90CA8FFF7D1FEDDE90DB00C99A7
:101A40005D46002610B909F101000D18B9EB05003B
:101A500003D4C0F1FF3609F10105A5EB09002BE025
:101A6000B9F1010F01DA4FF001090020B9F1110FAE
:101A70000090484601DD112300E003460AAA01A9AF
:101A80000CA8FFF7ABFEDDE90C704D46002683463F
:101A9000207800070AD4AB4500DA5D4601A8012D85
:101AA00004DD411911F8011C302907D04F4502DA35
:101AB00017F1040F04DA012082460FE06D1EEEE7F5
:101AC000002F02DCED1B3E4403E0781CA84200DD41
:101AD0007D1CB81B00F1010A4FF000472078000779
:101AE00003D4AA4501DB4FF0FF3A0021B7F1004FC4
:101AF0000DF143088DF8431024D002202B23002F32
:101B000001DA7F422D230A21021EA0F1010000DC30
:101B10005FB197FBF1FC97FBF1F201FB1C7C1746D0
:101B20000CF1300C08F801CDEEE7A8F101000370CC
:101B30002188090501D5452100E06521A0F10108B2
:101B400000F8011C09980FA9A1EB0807FF1D00B1BF
:101B50000120411901EBEA70A1693844081A401EBE
:101B6000A0612078C00602D42046FFF7DAF8099871
:101B700028B1D4E901219047206A401C20622078D6
:101B8000C00622D52046FFF7CCF81EE0002E04DB6D
:101B9000B34502DD01A8805D00E03020D4E90121D9
:101BA0009047206A401C2062761CAAF101005FEA7F
:101BB000000A0AD1FFF73DFDC0680168405CD4E926
:101BC00001219047206A401C2062281EA5F10105D2
:101BD000DCDC07E0D4E9012118F8010B9047206A0A
:101BE000401C2062381EA7F10107F3DC2046FFF7F6
:101BF000AEF8032011B041E601694A1C0261087881
:101C0000704700B58FB0CDE901310021059105493C
:101C10007944CDE9031011466846FFF759F90FB032
:101C200000BD0000E5FFFFFF0A6802F8010B0A6033
:101C30007047D1E900239A4202D2531C0B60107006
:101C4000704710B5436913B1AFF3008001E0FFF7AF
:101C50008FF8012010BD127800F124010A700022D3
:101C60004A700122EDE711684FF0FF32E9E700000A
:101C70002DE9FF5F15468A460446DFF8AC80F8443C
:101C80000027D8E900103E46CDE9001010E03AF8F0
:101C900016106A4602A801F001F8411C07D021780D
:101CA000890603D5E269391891420DD80744761C9C
:101CB0002078800602D5E069B84205DDAE42E6DB59
:101CC0003AF816000028E2D1A069C01BA0612046A6
:101CD000FFF727F8D8E90010CDE90010002017E041
:101CE0003AF818106A4602A800F0D8FFB0F1FF3F9A
:101CF00081460BD000250DF1080B05E0D4E9012148
:101D00001BF8050090476D1C4D45F7D308F1010005
:101D1000B0428046E4DB206A384420622046FFF768
:101D200016F8BDE8FF9F00000EBD00002DE9F04150
:101D30008046D21D22F007020025D2E90002F529D3
:101D400015A614D0011E72F1000106DA0023D0EBB3
:101D5000030063EB020211A608E0D8F800108B071D
:101D600001D50FA602E0490701D50EA601251146AF
:101D7000002408F1240704E000F095FC30323A55C5
:101D8000641C50EA0102F7D12B46324621464046F8
:101D9000BDE8F041FFF7B4BC000000002D000000DA
:101DA0002B0000002000000030B4002100F12404CA
:101DB00008E002F00705D208303542EA4372DB083A
:101DC0006554491C52EA0305F3D10468002310A2AC
:101DD000250707D5A40600D421B1C46901230DA2AB
:101DE000641EC46130BCFFF78BBC10B504462146AD
:101DF0001068FFF77CFC02462046BDE81040002337
:101E0000D2E7D21D22F00701D1E90023CCE7000080
:101E1000000000003000000070B50D460146144679
:101E2000D36850692A4606F0F3F8002807DA411C07
:101E300007D0E16820F0004041F48041E160281AB9
:101E400070BD204600F06CFA4FF0FF3070BDC168E5
:101E50000022026021F4805141F0400111F4C06F72
:101E6000C16001D08260704702694168891AC26905
:101E7000891A816070472DE9F0470446C06840F434
:101E80008000E060010312D520F40020E0608106AC
:101E900006D4E26A61688A4200D80A46511A216073
:101EA00040F40010E06094F82500BDE8F08720F4CD
:101EB0000010E060800602D5204600F088FAE06855
:101EC00042F281014FF0FF390140012903D0204641
:101ED00000F026FAB6E02168002600290ADAC94394
:101EE00040F480502160C4E902606068411C616078
:101EF0000078DAE744F2400108420CD020F4A04018
:101F000040F040002660E06021696068401AE169A5
:101F1000401AA06096E0216991B9C00310D4E0692D
:101F2000FEF70BFE2061B0B1E06840F4006010F4F1
:101F3000407FE06002D140F48070E0602069606022
:101F4000E068D4F814A0C1061AD5C0030ED5204607
:101F500000F01AFA14E004F1240020610120E0618D
:101F6000E06820F4407040F48060E6E72169606832
:101F7000401AA1690144504606F082F80028A6DB09
:101F8000E068C0032AD56168E06A884200D8084644
:101F90002169451AE069471B1BD02046D4F81880F8
:101FA00000F0F2F908EB05015046C4F8188006F07D
:101FB00067F800288BDBE06840F40030E060000246
:101FC00002D5A0692844A061E1692069C91B4518B0
:101FD0000DE0204600F0D8F9E769F5E7256961686A
:101FE000D4E90607491BE56208446560A061E06822
:101FF00020F0100010F4C06FE06002D0204600F026
:102000001FFEE06840F48050C4E90260000205D57C
:102010002069E06260606FF0010046E722463946C1
:102020002846FFF7F9FE411C0CD02918E16258B18F
:10203000401E2060681C6060E06840F40030E06092
:10204000287832E7484630E765602046FFF7FFFE14
:10205000F8E72DE9F04705460C46C86820F4201043
:1020600040F48000C860800602D5084600F0AFF951
:10207000E06841F282014FF0FF390140022903D0AC
:10208000204600F04DF9B5E000F42041B1F5004FD5
:102090000FD1C00306D56168E06A884200D80846BF
:1020A000606006E02069E0626060606905F0A4FE9F
:1020B000A061A0680022EEB200280DDAE1688B056D
:1020C0000AD4C043A06041F490302260E0606068B0
:1020D000411C61600670A5E0E0689046226040F413
:1020E0000050E060206968BB606905F0AFFE012721
:1020F00004F12405A0B1A08910F4407F08D0E06964
:10210000FEF71BFD206118B1E06840F4006016E0A6
:10211000E7612561E06820F4407040F480600EE0E3
:10212000E069FEF70AFD00282061F1D0E06840F484
:10213000006010F4407FE06002D140F48070E06005
:1021400020696060E06825696FF0010AC1051FD54C
:102150006168E06A884200D80846411B04D02246E4
:10216000284600F0E7F8F0BBE068010203D5E5621D
:10217000C4E9015854E0691CE1626160E16940F41E
:102180008030491EC4E9021030462E70BDE8F08749
:10219000010202D500F480320AE06068411C6160EF
:1021A0000670E0680A2E40F48030E06006D000221D
:1021B000E16A6068814203D90B4602E00122F7E739
:1021C0000346A7895B1B7F0503D4E7699F4200DDB7
:1021D000E2B1814200D80146E5620F1AC4E9015814
:1021E000002B09DD00E005E022461946284600F0F4
:1021F000A1F808B14846C9E747B1A069E562656042
:10220000C01BA061E06840F01000E060E0680002E0
:1022100008D56168A069E562491B08446560A06152
:102220005046B3E73046B1E72DE9F0410446164683
:102230000D464769007B80072ED0384605F006FE24
:1022400050BB3EB3012E02D0022E25D104E0204621
:1022500000F0D4FC05441DE0384605F0CDFDE168F2
:10226000002841F01001E16005DA204600F058F83E
:102270000120BDE8F081C9030BD56268E16A914293
:1022800000D81146A26911442269891A814200DDF1
:1022900008460544002D01DA0220EAE7E16A606899
:1022A000E268814206D29103E06203D522F4003154
:1022B00041F01002A6690027AE4213DCE16A8142B8
:1022C00001D90B4600E0034603EB060C2369ACEB97
:1022D000030CAC4506DD814201D98C4600E0844602
:1022E0009C4505D1A760276042F02000A5620DE063
:1022F000AD1BE669AE1B8142A66000D90846C01A34
:10230000281A20605819606022F020000349084014
:10231000E060002084F84870ABE70000BFCFD7FF33
:10232000C16821F4001141F08001C1600021816089
:10233000016070472DE9F047814614460E464FF084
:10234000FF383248D5685769054209D03846A16937
:1023500005F096FE002811DB2C48C0430540E560DF
:102360002B4632464946384605F0BCFEA16920F0AE
:102370000042B21A11440028A16103D02046FFF7A1
:10238000CFFF4046BDE8F08770B504460569C06AD6
:102390006168884200D80846E16821F42011E160B4
:1023A000C90312D5A84208D02246411B2846FFF790
:1023B000C1FF10B14FF0FF3070BD0020E562C4E9ED
:1023C0000150E06820F48030E060002070BD10B55E
:1023D0000446C06820F02000E060A16AA06988423D
:1023E0000DD02046FFF7D0FFE06820F4405040F0C9
:1023F0001000E060A06AA0612069E062606044F2C1
:102400004001E0688843E06010BD00001000020059
:102410002DE9F04704461E4690460D46C7684C30ED
:10242000814605F02FFCB80714D0780212D440463C
:10243000B8F5807F09D0B0F5007F06D0B8F5806F81
:1024400008D1012604F1240506E0701E6FF07F41DB
:10245000884201D3012409E02561E6616560E068F6
:1024600020F4706040EA0800E0600024484605F06F
:102470008DFC2046BDE8F08710B565485421FFF774
:1024800040F864485421FFF73CF863485421FFF7B3
:1024900038F862485E49624A624B01605D481060EC
:1024A0005D4A1A60431C0B65511C016501201065D3
:1024B00057484C3005F0F8FB56484C3005F0F4FB1B
:1024C00055484C3005F0F0FB574805F0EDFB5848F7
:1024D0004F4A56A17844FEF7B8FE20B954487844D4
:1024E0000A3800F000FC54484A4A52A17844FEF7EA
:1024F000ACFE20B9504878440A3800F0F4FB4F484D
:10250000454A4CA17844FEF7A0FE20B94B487844D8
:102510000A3800F0E8FB40233D48DC000021224659
:10252000FFF776FF20B142487844543800F0DBFBD7
:102530003848224640230021FFF76AFF20B13E4879
:102540007844543800F0CFFB334822461023002152
:10255000FFF75EFF002806D038487844BDE81040F9
:10256000563800F0C0BB10BD2B482DE9F041006D7E
:102570002D4E20F00104304605F084FB244D4C35EF
:10258000284605F07FFB2248FEF770FD284605F03F
:10259000FDFB2846AFF300801E4D4C35284605F064
:1025A00071FB1C48FEF762FD284605F0EFFB28464C
:1025B000AFF30080184D4C35284605F063FB1648F4
:1025C000FEF754FD284605F0E1FB2846AFF30080F6
:1025D00014E0206D20F0010504F14C00074605F0E1
:1025E00051FB2046FEF742FD384605F0CFFB38464A
:1025F000AFF300802046FEF7DBFA2C46002CE8D132
:10260000304605F0C3FB0848AFF30080BDE8F08119
:10261000A8260020FC26002050270020800A002049
:10262000840A0020880A00208C0A00207200000022
:10263000D8AC000077000000C7AC0000B7AC0000C9
:1026400010B500F05FFBBDE8104000F047BB08B5D7
:1026500069468DF800000320ABBE08BD0149182073
:10266000ABBEFEE72600020030B404468C46436849
:10267000002B18BF634538BF1846F8D303681844C9
:10268000604507D0C81C20F0070000F1040CACEB3B
:102690000100121A2146CCF8002030BC00220CF1B7
:1026A0000400FEF754BA30B5B0F10A024FEA900EBA
:1026B00071F100034EEA817EB0EB0E0061EB9101F7
:1026C0004FEA101E4EEA017E10EB0E0041EB111195
:1026D0004FEA102E4EEA016E10EB0E0041EB112175
:1026E0004FEA104E4EEA014E10EB0E0041EB114145
:1026F000401841F100014FEAD00040EA41704FEA32
:10270000D10110EB80054FEA810444EA907444EB58
:1027100001046D1944EB0404521BA3414FF0000364
:1027200048BF0A3200D530BD401C41F1000130BD28
:102730002DE9F04F04460D46D21D22F0070089B066
:10274000D0E900974846394605F0CAF80246F80F26
:1027500001D02D2307E02068810701D52B2302E05B
:10276000202101EAC0038DF820300BB1012000E0E8
:102770000020032A824601D0072A04DB294620468E
:1027800000F054F93FE12078800601D40D2500E0E7
:10279000E569C7F30A560D2D49DA00214FEA175BA8
:1027A00008464FF00000002F00F4400007DA00EB6D
:1027B00080004FF4400100EBD07001EA6000811509
:1027C000012901DD4FF0FF3100224FEA850CBCF1F9
:1027D000180F06D31346ACF118004FF08052C240D8
:1027E00003E04FF4801323FA0CF30CF10C0CBCF152
:1027F000200F04D3ACF1200C09FA0CF001E007FA29
:102800000CF000294FF0004801DD18B90FE00ED19F
:1028100040450CD319EB02095F4121B9404502D173
:102820009F4329EA0209BBEB175F00D0761C208882
:10283000000502D57B48784402E07A48784419388C
:1028400008AA302302F80A30037C0AF10101002EA5
:102850000AF1020A53546A4602DC4FF0300101E0EB
:102860004FF031014FF001088DF8001002D0A6F2B0
:10287000FF3603E059EA470100D06B4E002D02DC21
:102880002178090704D54FF002082E218DF8011098
:10289000C44600210BE0C7F303433F01C35C491C5E
:1028A0006D1E02F80830052908F1010801DA002D33
:1028B000F1DC00210CE000EB1973491C1B786D1E44
:1028C000082902F808304FEA091908F1010801DA6D
:1028D000002DF0DC21688B0602D516E0A8F1010876
:1028E000E04505DD02EB080313F8013C302BF5D081
:1028F000B8F1000F09DD02EB080313F8013C2E2BA1
:1029000003D1090701D4A8F10108002D05DD3E21FE
:1029100002F808106D1E08F10108407C002E02F834
:10292000080008F1010804DA2D20764202F80800B8
:1029300002E02B2002F808000A214FF47A70864248
:1029400008F101080BDB96FBF0F3303302F8083096
:1029500096FBF0F308F1010800FB136601E0642E1A
:102960000CDB642096FBF0F3303302F8083096FB62
:10297000F0F308F1010800FB136601E00A2E06DB04
:1029800096FBF1F0303002F8080008F1010896FBE0
:10299000F1F001FB1060303002F80800A16908F185
:1029A000010808EB050202EB0A00081AA061207872
:1029B000C00602D42046FEF7B4F9216A08AE01EB46
:1029C0000A00206204E0D4E9012116F8010B9047C7
:1029D000BAF1010AF7D22078C00602D52046FEF7E8
:1029E000A0F96E4609E016F8010B3E280FD0D4E995
:1029F00001219047206A401C2062B8F10108F2D200
:102A00002046FEF7A4F909B00320BDE8F08F206A44
:102A10002844206203E0D4E90121302090476D1E54
:102A2000EBD3F8E771B1000002FCFFFF2DE9F041A4
:102A30001F46044603260168072A01F4006004DBF0
:102A400008B116A505E016A503E008B115A500E03C
:102A500015A521F010002060A069C01EA0610FB173
:102A6000401EA0612046FEF75CF94FB1D4E9012178
:102A700038469047206A401C2062C01C206206E055
:102A8000206AFAE7D4E9012115F8010B9047761E78
:102A9000F8D22046FEF75BF9BDE8F0814E414E00CA
:102AA0006E616E00494E4600696E66002DE9F04188
:102AB00014460D46074601F14C06304605F0E2F893
:102AC000094B7B44224629463846FFF79AF80446CC
:102AD000287B000601D54FF0FF34304605F056F94B
:102AE0002046BDE8F0810000AB5D000010B54369F1
:102AF00013B1AFF3008001E0FFF7BAF8012010BD79
:102B0000128800F1240182840022C2840122EDE7B0
:102B100011684FF0FF32E9E72DE9F047814616468C
:102B20008AB0354878440DC88DE80D0032487844A5
:102B3000801C03AC0DC884E80D0041F69B300844AE
:102B4000372190FBF1F290FBF1F5A5F1800501FB37
:102B500012041B3C02D56442012000E00020DFF893
:102B600098A080460027FA44AAF1BE0A0EE0E007CA
:102B70000AD03246684607EB470101230AEB810180
:102B800000F0D2FB8DE8070064107F1C002CEED112
:102B9000194F7F44AE3F19E0E80715D007EB04104A
:102BA0000DF1180A90E80E008AE80E00C068F042A5
:102BB00001D1981908903246012306A903A800F014
:102BC000B3FB03AB83E807006D10641C002DE3D159
:102BD0004FF0010332466946B8F1000F03A802D056
:102BE00000F08DFB01E000F09FFBC9E90001C9F88E
:102BF00008200AB0BDE8F08714AF000010B5014608
:102C0000C268900703D0900607D5886A0AE0FDF7EE
:102C10004DFF01210160881E10BD8B694868184472
:102C20000B69C01A91F848301BB191F84910401A4D
:102C300010BD1103FCD50028FADD401E10BD0000B8
:102C40002DE9F04707461348814605F01BF8124C62
:102C500040F2022817E094F85000C00710D0BC42A0
:102C60000ED004F14C05284605F00CF8E66828461D
:102C700005F08CF838EA060002D12046FEF746FA45
:102C8000206D20F00104002CE5D1484605F07EF8C7
:102C9000BDE8F0878C0A0020A826002070B51646F3
:102CA0000C460546FDF7FAFE036893F8010101287A
:102CB00006D0FF2C0FD8185D68B101202C7070BDB4
:102CC000D3F807013246214603F20713034428468E
:102CD000BDE8704018474FF0FF3070BD002801D0AC
:102CE000FFF7BCBC704710B500F046F8BDE81040D7
:102CF000FFF7F4BF10B500F059F8BDE81040FFF73A
:102D0000EDBF000010B5002102A000F01CF801206A
:102D100010BD00005349475056464E3A2050757238
:102D200065207669727475616C20666E2063616CD3
:102D30006C656400704710B5FEF776FC0068BDE86E
:102D4000104000F05BB870B505460C460A2000E064
:102D50006D1CFFF77CFC35B128780028F8D102E023
:102D6000641CFFF774FC14B120780028F8D1BDE88A
:102D700070400A20FFF76BBC10B5014602A0FFF7B8
:102D8000E2FF012010BD0000534947525452454410
:102D90003A2052656469726563743A2063616E27F4
:102DA00074206F70656E3A200000000010B5012895
:102DB00005D0002103A0FFF7C6FF012010BD09A127
:102DC000F8E7000053494752544D454D3A204F759E
:102DD00074206F662068656170206D656D6F727913
:102DE000000000003A2048656170206D656D6F72CB
:102DF0007920636F727275707465640010B50C3061
:102E0000AFF3008010BD5FEA400C08BF91F0000FE7
:102E10004FEA8C234FEAC12243EA51514FEA1C503A
:102E200018BF00F5F0404FEA300018BF41F00041F4
:102E30005FEA6C5C00F02980BCF1FF3F08BF40F006
:102E400080407047130C06BF12044FF0100C4FF077
:102E5000000C130E04BF12020CF1080C130F04BF78
:102E600012010CF1040C930F04BF92000CF1020C40
:102E7000D30F04BF52000CF1010C11464FF00002B9
:102E8000A0F11F00A0EB0C00704711F0004F08BF2D
:102E9000704731F000413FF4D5AF0B0C06BF090479
:102EA0004FF0100C4FF0000C0B0E04BF09020CF198
:102EB000080C0B0F04BF09010CF1040C8B0F04BFAD
:102EC00089000CF1020CCB0F04BF49000CF1010C7E
:102ED000CCF12003A0EB0C0022FA03F302FA0CF26F
:102EE00041EA030100F10100704720F07F4C80EAC5
:102EF000030023F07F47ACEB070303F57C5300F09E
:102F0000004003F1FF032DE980494FEA154B09B456
:102F10004FEA144325EA0B4E24EA03480FF2042635
:102F200006EB132749083E785FEA320203FB066787
:102F3000C7F5000707FB06F64FEA54374FEAD646B7
:102F400006F1020607FB066CCCF1005C4FEA1C4759
:102F50002CEA074C07FB06F40CFB06F504EB1546C0
:102F60004FEA961634BF00204FF000404FEAD137A9
:102F700006FB07FC4FEA1C4C0CFB0BF7D21B03FBB8
:102F80000CF761EB07010CFB0EF7B0EB074072EB9F
:102F900017420CFB08F734BFA2EB0742B2EB074223
:102FA00061EB17414FEA0C444FEA910706FB07FC1F
:102FB0004FEA1C4C0CFB0BF7B0EBC74072EB5732DF
:102FC00003FB0CF734BFA2EBC742B2EBC74261EB85
:102FD00057310CFB0EF7B0EBC70072EB57720CFBCE
:102FE00008F734BFA2EBC702B2EBC70261EB57711F
:102FF000039F4FEA816141EA921104EBCC044FEA4E
:10300000D1374FEA826206FB07FC42EA90124FEA90
:1030100080604FEA1C4C0CFB0BF7D21B03FB0CF738
:1030200061EB07010CFB0EF7B0EB074072EB1742A8
:103030000CFB08F734BFA2EB0742B2EB074261EB8F
:1030400017414FEA8C554FEA910704EB9C2406FB8D
:1030500007FC4FEA1C4C0CFB0BF7B0EBC74072EBC4
:10306000573203FB0CF734BFA2EBC742B2EBC742A7
:1030700061EB57310CFB0EF7B0EBC70072EB5772E8
:103080000CFB08F734BFA2EBC702B2EBC70261EB3F
:10309000577115EB4C254FEA816141EA92114FEAD5
:1030A00082624FEAD13742EA901206FB07FC44F1F4
:1030B00000044FEA80604FEA1C4C0CFB0BF7D21B5C
:1030C00003FB0CF761EB07010CFB0EF7B0EB0740BD
:1030D00072EB17420CFB08F734BFA2EB0742B2EBCE
:1030E000074261EB174115EB1C154FEA813141EAAC
:1030F00092414FEA823242EA90424FEA80304FEAF0
:103100000C7644F1000448EA03434EEA0B484FF0C2
:10311000000EB2EB080C71EB030724BF6246394680
:103120004EEB0E0E4FF0000B0018524149414BEB95
:103130000B0BB2EB080C71EB03077BF1000B24BF08
:10314000624639464EEB0E0E4FF0000B001852410E
:1031500049414BEB0B0BB2EB080C71EB03077BF116
:10316000000B24BF624639464EEB0E0E51EA0207B1
:1031700018BF46F0010616EB0E7655F1000254F129
:10318000000103D5BDE88901BDE80088BDE88901DB
:10319000BDE80048B619524141EB0101A3F101031A
:1031A000704780807F7E7D7C7B7A797877767675B4
:1031B0007473727171706F6E6E6D6C6C6B6A6A692C
:1031C0006868676666656464636362616160605FC6
:1031D0005F5E5E5D5D5C5C5B5B5A5A59595858573F
:1031E00057565655555554545353525252515150A7
:1031F00050504F4F4F4E4E4D4D4D4C4C4C4B4B4BFA
:103200004A4A4A494949484848474747474646463F
:10321000454545444444444343434342424242417A
:103220004141002B9C4630D477002BD01CB54FEA8F
:10323000370703B44FF010004FF01001BAF1000F40
:1032400006D0BCF1000FDCBF40F0080040F00801E0
:103250004FF000000FBCBDE810400BF1010BBBF1BB
:10326000010F08BF5FEA170722BF12F1010211F137
:1032700001014FF0004143F1000300F0004043EA38
:1032800000007047F9D35708D0E746EA064613F125
:10329000400F4FEA16461FDD13F1200FDFBF164324
:1032A0000A46002120335B42BED0C3F1200746EA24
:1032B000064602FA07F74FEA164646EA0706C3F142
:1032C000200722FA03F201FA07F721FA03F14FF07F
:1032D000000342EA0702A7E746EA020646EA064674
:1032E0004FEA164646EA0106BCBF46EA0646360CD9
:1032F0004FF000034FF000024FF0000194E72DE97A
:10330000804C9A46934670B491E8380007C831EA79
:10331000400C48BF34EA430C03D5FFF7E6FDFFF746
:1033200080FFF0BCBDE8008C2DE9804C9A469346A6
:1033300070B491E8380007C810F0804F08BF13F050
:10334000804F03D100F005F8FFF76BFFF0BCBDE83C
:10335000008C20F07F4780EA030023F07F4C07EBCE
:103360000C03A3F57C5300F00040A3F1FE0392F0A0
:10337000000F00F0B38095F0000F00F077802DE98A
:1033800001494FEA11404FEA144621EA004800FB88
:1033900006FC24EA064708FB06F607FB08F800FBD4
:1033A00007F718EB06484CEB164C4FEA124B18EB9C
:1033B00007484FEA15464CEB174022EA0B4E0BFB31
:1033C00006FC25EA06470EFB06F607FB0EFE0BFB86
:1033D00007F71EEB064E4CEB164C4FF000061EEBAB
:1033E000074E4CEB174B18EB0B0840F1000018EBA5
:1033F0000E0B58EB000840F100008F1A4FF000014F
:103400003CBFC943661B14BFB5EB040C00213CBF95
:10341000C943F61B4FEA17444EEA8E0E27EA0445CD
:103420004FEA1C4704FB07622CEA074C05FB07F731
:103430000CFB05F604FB0CFC16EB074642EB1742AF
:1034400016EB0C4642EB1C421BEB060658EB020245
:10345000414146EA9E0601D5BDE80189B6195241AF
:1034600041EB0101A3F10103BDE801894FEA1445D5
:103470004FEA114724EA054621EA074C05FB07F409
:1034800006FB07F70CFB06F105FB0CFC11EB0741F3
:1034900044EB17444FEA124711EB0C4144EB1C4438
:1034A00022EA074C05FB07F206FB07F70CFB06F6C2
:1034B00005FB0CFC16EB074642EB174216EB0C46DD
:1034C00042EB1C456A1854F1000148BF7047B61919
:1034D000524141EB0101A3F10103704795F0000F48
:1034E00037D04FEA11424FEA144721EA024624EA54
:1034F000074C02FB07F106FB07F70CFB06F402FB87
:103500000CFC14EB074441EB17414FEA154714EB51
:103510000C4441EB1C4125EA074C02FB07F506FB76
:1035200007F70CFB06F602FB0CFC16EB074645EB17
:10353000174516EB0C4645EB1C42121951F10001E0
:1035400048BF7047B619524141EB0101A3F1010395
:1035500070474FEA14454FEA114724EA054621EA2D
:10356000074C05FB07F106FB07F70CFB06F24FF0D3
:10357000000605FB0CFC12EB074241EB174112EB76
:103580000C4251EB1C4148BF7047921841EB0101BE
:10359000A3F10103704710B505F07AFD05F00CFCAE
:1035A00010BD10B504460021204609F0C5FC10BD31
:1035B00054494A6822F440324A604A6843681A43D0
:1035C0004A600268526822F4807203685A60026896
:1035D0005368026943EA022203685A60026852682B
:1035E00022F0407203685A600268526883681A4386
:1035F00003685A600268926822F4006203689A6065
:1036000002689268C3681A4303689A603E4B826AF4
:103610009A4218D00268926822F0706203689A6039
:1036200002689268836A1A4303689A600268926823
:1036300022F0405203689A6002689268C36A1A4393
:1036400003689A600BE00268926822F07062036877
:103650009A600268926822F0405203689A60026899
:10366000926822F0020203689A6002689368826995
:1036700043EA420203689A60026AA2B10268526891
:1036800042F4006203685A600268526822F46042A1
:1036900003685A6002685368426A521E43EA423223
:1036A00003685A6005E00268526822F40062036809
:1036B0005A600268D26A22F470020368DA62026811
:1036C000D36A828B521E43EA02520368DA620268AE
:1036D000926822F4007203689A6002689368026B31
:1036E00043EA422203689A600268926822F4806288
:1036F00003689A6002689368426943EA8222036819
:103700009A607047002301400100000F10B50021AE
:10371000014804F0B3FE10BD0064004010B5002164
:10372000014804F0ABFE10BD0064004010B500215C
:10373000014804F0A3FE10BD0064004010B5012153
:10374000014804F09BFE10BD0068004010B5012147
:10375000014804F093FE10BD0068004010B501213F
:10376000014804F08BFE10BD0068004070477047B0
:103770007047704770477047704770477047704791
:103780007047704770477047704770477047704781
:103790007047704770477047704770477047704771
:1037A0007047704770477047704770477047704761
:1037B0007047704770477047704770477047704751
:1037C0007047704770477047704770477047704741
:1037D0007047704770477047704710B506F03CFD62
:1037E0000446204609F04CF810BD704770477047FA
:1037F000704770477047704710B50446204609F07F
:103800003FF810BD7047704738B502460020009061
:1038100000BF92F83C00012801D1022038BD0120F0
:1038200082F83C0000BF0868092816D91068C068F3
:103830000C780A3C04EB44050724AC40A043146810
:10384000E0600C780A3C04EB44048868A0401468EB
:10385000E46820431468E06013E0106800690C78A5
:1038600004EB44050724AC40A043146820610C78A5
:1038700004EB44048868A040146824692043146859
:1038800020614868072817D21068406B0C79641EC5
:1038900004EB84051F24AC40A043146860630888CF
:1038A00080B20C79641E04EB8404A0401468646B3D
:1038B00020431468606331E048680D2817D210680F
:1038C000006B0C79E41F04EB84051F24AC40A0437B
:1038D00014682063088880B20C79E41F04EB840428
:1038E000A0401468246B20431468206316E010681D
:1038F000C06A0C790D3C04EB84051F24AC40A04346
:103900001468E062088880B20C790D3C04EB8404F2
:10391000A0401468E46A20431468E0621A4B1B4C10
:103920001068A04206D10868122803D1586840F4F4
:1039300080005860154C1068A0421ED1144C0868D5
:10394000A04202D00868112817D1586840F400003E
:1039500058600F4C0868A0420FD10E4800680E4C0A
:10396000B0FBF4F000EB80004000009002E0009813
:10397000401E009000980028F9D100BF002082F876
:103980003C0000BF00BF49E7002301400020014088
:10399000120000106C0A002040420F000146086827
:1039A000C06C704770B5044600250CB9012070BD8D
:1039B0001549A06A884200D000BF206C30B90020B1
:1039C000606484F83C00204600F020F8206C00F091
:1039D000100088B9206C20F4885040F00200206468
:1039E0002046FFF7E5FD00206064206C20F0020017
:1039F00040F00100206400E0012500BF002084F8B1
:103A00003C0000BF2846D2E70100000F704770B5A8
:103A100004460D4600262068806800F4806078B176
:103A20002068806800F4807050B1206C40F0200065
:103A3000206400BF002084F83C0000BF012070BD5E
:103A400000F0D6F8064612E0681C80B125B100F0FF
:103A5000CFF8801BA8420AD9206C40F004002064F3
:103A600000BF002084F83C0000BF0320E7E7206887
:103A7000006800F002000228E6D16FF01200216811
:103A80000860206C40F4007020642068806800F0BA
:103A90004050B8B9A069A8B92068C06A00F47000A5
:103AA00020B12068806800F4806058B9206C20F450
:103AB00080702064206C00F4805018B9206C40F0B5
:103AC000010020640020BAE708B5014600200090FC
:103AD00000BF91F83C00012801D1022008BD01205F
:103AE00081F83C0000BF0868806800F00100A0B9C0
:103AF0000868806840F001000B6898602E480068F4
:103B00002E4BB0FBF3F000EB4000009002E0009879
:103B1000401E009000980028F9D10868806800F0E5
:103B20000100002845D0086C40F20163984340F43E
:103B3000807008640868406800F4806028B1086CF0
:103B400020F4005040F480500864086C00F4805069
:103B500020B1486C20F00600486401E00020486471
:103B600000BF002081F83C0000BF154A6FF0220022
:103B70000B681860506800F01F0058B9086880682A
:103B800000F04050A8B90868806840F080400B6899
:103B900098600EE00B4B086898420AD1086880686C
:103BA00000F0405028B90868806840F080400B68F9
:103BB0009860002092E700006C0A002040420F004D
:103BC0000023014000200140014691F83500022801
:103BD00003D08020486501207047052081F835001A
:103BE0000868006820F001000A6810600020F3E710
:103BF0000148006870470000600A00200348006820
:103C0000034909780844014908607047600A0020A8
:103C1000680A002010B50D48006840F400700B4998
:103C200008600846006840F4806008600846006844
:103C300040F480700860032000F09AF80F2000F034
:103C400007F800F093F8002010BD0000003C02408F
:103C500010B588B0044602A903A800F07FFC00F06C
:103C6000A5FC029000BF002001903948006840F098
:103C70000800374908600846006800F00800019015
:103C800000BF00BF32482038006840F008003049CB
:103C9000203908600846006820F0080008602D48B8
:103CA0002D4908604FF0FF312B48C160069840B99C
:103CB0002A490298B0FBF1F080B2401E26494860C4
:103CC00008E0029840002549B0FBF1F080B2401EA8
:103CD000214948600021204801618160416100F074
:103CE0009DFF32201E491F4B1A6800F1100342F855
:103CF000231000BF00BF002809DB00F01F020121D4
:103D000091404209920002F1E022C2F8001100BF86
:103D10000021114800F09EFF04210F4800F09AFF97
:103D20000D480068406A104908600846006800F5C0
:103D30007A7009490968886307480068C06840F0DC
:103D4000040005490968C860002008B010BD0000E3
:103D500040380240000C0040C421002040420F00C7
:103D6000F1C9000808ED00E0180A002070470000C3
:103D700000BF00F00702064B19684FF6FF03194019
:103D8000044B0B4343EA0221014B196000BF70470B
:103D90000CED00E00000FA0538B5002400BF00205B
:103DA00000901D48006840F080501B49086008469C
:103DB000006800F08050009000BF00BF012017494C
:103DC0000864FFF715FF044607E0FFF711FF001B2B
:103DD000B0F57A7F01D9032038BD1148406800F45E
:103DE0008030B0F5803FF0D101200C494864FFF7E6
:103DF000FFFE044607E0FFF7FBFE001BB0F57A7FED
:103E000001D90320E8E70648406800F40030B0F527
:103E1000003FF0D10020DFE74038024000000E42B2
:103E200000700040064A126822F00402044B1A6037
:103E3000012901D130BF02E040BF20BF20BF704741
:103E400010ED00E00D4A126822F0030202430B4B12
:103E50001A600B4A126842F00402094B1A600129E9
:103E600001D130BF02E040BF20BF20BF044A12682A
:103E700022F00402024B1A607047000000700040FC
:103E800010ED00E02DE9FE4F044600250026002736
:103E9000A846A946AA46AB46002002900190207889
:103EA00000F0010058B1FE48006820F0C060A16B2E
:103EB0000843FB490860A06B08B9012002902078F4
:103EC00000F0020002280BD1F548006820F0C05035
:103ED000E16B0843F2490860E06B08B901200290E9
:103EE000207800F00400042811D1ED48006820F487
:103EF0004010216B0843EA490860206BB0F5801F31
:103F000001D101200290206B08B901200190207896
:103F100000F00800082811D1E148006820F44000B2
:103F2000616B0843DE490860606BB0F5800F01D11A
:103F300001200290606B08B901200190207800F008
:103F4000200020286FD100BF00200090D4484C38BA
:103F5000006840F08050D2494C390860084600683B
:103F600000F08050009000BF00BFCE48006840F4D1
:103F70008070CC490860FFF73BFE054607E0FFF77D
:103F800037FE401B022802D90320BDE8FE8FC5483A
:103F9000006800F480700028F1D0C1481C38006827
:103FA00000F4407656B3B4F8400000F44070B042DC
:103FB00024D0BB481C38006820F440760120BA4960
:103FC000086000200860B6481C380660006800F0F1
:103FD000010098B1FFF70CFE054608E0FFF708FE68
:103FE000401B41F28831884201D90320CDE7AC481B
:103FF0001C380068C0F340000028EFD000BFB4F8C0
:10400000400000F44070B0F5407F0DD1A4488438E2
:10401000006820F4F810A54A216C11400843A0491B
:104020008439086008E013E09D488438006820F473
:10403000F8109B498439086099481C380068B4F826
:104040004010C1F30B01084395491C39086000BFBB
:10405000207800F01000102803D194F858009449FB
:104060000860207800F08000802809D18C48083052
:10407000006820F44000E16C084389490831086079
:10408000207800F04000402809D1854808300068B9
:1040900020F08060A16C08438149083108602088C5
:1040A00000F48070B0F5807F0FD17D480830006843
:1040B00020F00060616D0843794908310860606D47
:1040C000B0F1006F01D101200190208800F4007050
:1040D000B0F5007F09D172480830006820F08050A8
:1040E000616C08436E4908310860208800F48060E4
:1040F000B0F5806F0FD16A480830006820F000509A
:10410000216D0843664908310860206DB0F1005FF9
:1041100001D1012002900298012803D02068B0F557
:10412000006F7DD1002063498866FFF761FD054679
:1041300006E0FFF75DFD401B022801D9032024E7BC
:1041400057488C380068C0F3C0600028F1D120784F
:1041500000F0010008B1A06B30B1207800F002003F
:1041600002281ED1E06BE0B94D4808380068C0F362
:104170000140401C47004A4808380068C0F3036803
:10418000D4E9011041EA80100121C1EB570140EA56
:10419000014040EA0861207D41EA00704049083949
:1041A0000860207800F00400042803D1206BB0F5EB
:1041B000801F08D0207800F00800082829D1606B03
:1041C000B0F5800F25D1364808380068C0F30140AB
:1041D000401C4700324808380068C0F30279D4E92F
:1041E000011041EA80100121C1EB570140EA014171
:1041F000207C41EA006040EA0970294908390860DA
:104200002748006820F01F00A16A491E084324497E
:104210000860208800F48060B0F5806F23D100E052
:104220005BE0206DB0F1005F1DD11D4808380068CB
:10423000C0F30140401C4FEA4008194808380068A4
:10424000C0F30279D4E9011041EA80110122E0684B
:10425000C2EB500041EA004040EA086040EA0970C1
:104260000F4908390860208800F40060B0F5006F3D
:1042700012D1D4E9011041EA80110122E068C2EBB9
:10428000500041EA0041207C41EA0061207D41EA82
:1042900000700349083908600120064988660BE070
:1042A0008C38024000700040400E4742FFFCFF0F78
:1042B000E011474200004742FFF79AFC054606E03E
:1042C000FFF796FC401B022801D903205DE6414818
:1042D0000068C0F3C0600028F2D00198012877D1AF
:1042E00000203D490867FFF783FC054606E0FFF71D
:1042F0007FFC401B022801D9032046E635480068B0
:10430000C0F340700028F2D1207800F004000428A7
:1043100001D1206B30B1207800F00800082824D1AA
:10432000606B10BB2B4888300068C0F30140401C14
:104330004FEA400AD4E9061041EA80100121C1EB9E
:104340005A0140EA01412420005D41EA0060214910
:1043500088310860081D006820F4F851E06A401EAA
:1043600041EA00201B498C310860208800F48070ED
:10437000B0F5807F17D1606DB0F1006F13D1154893
:1043800088300068C0F3036BD4E9061041EA80115D
:104390000122206AC2EB500041EA004040EA0B6073
:1043A0000C498831086001200B490867FFF720FCA1
:1043B000054607E0FFF71CFC401B022802D903203A
:1043C000E3E505E003480068C0F340700028F1D041
:1043D0000020DAE5003802400000474270B504468C
:1043E0000D460CB9012070BD5848006800F00F0060
:1043F000A84209D255490D700846006800F00F0028
:10440000A84201D00120EEE7207800F00200022847
:104410001DD1207800F00400042805D14C48006824
:1044200040F4E0504A490860207800F0080008286D
:1044300005D14748006840F4604045490860444859
:10444000006820F0F000A168084341490860207826
:1044500000F00100A8B36068012807D13C48083883
:104460000068C0F34040B8B90120BCE7606802288A
:1044700002D06068032807D1354808380068C0F3C7
:10448000406048B90120AEE7314808380068C0F301
:10449000400008B90120A6E72D48006820F003007D
:1044A000616808432A490860FFF7A2FB064609E055
:1044B000FFF79EFB801B41F28831884202D903201E
:1044C00091E707E02248006800F00C006168B0EB5B
:1044D000810FEDD11D48006800F00F00A84209D9F6
:1044E0001A490D700846006800F00F00A84201D07C
:1044F000012078E7207800F00400042807D1144850
:10450000006820F4E050E168084311490860207811
:1045100000F00800082808D10D48006820F4604029
:10452000216940EAC1000A49086000F05FF80849C3
:104530000968C1F30311074A515CC8400649086085
:104540000F20FFF785FB00204DE70000003C0240F4
:10455000083802403CD900086C0A00200F22026093
:104560000D4A126802F0030242600B4A126802F020
:10457000F0028260084A126802F4E052C260064A01
:10458000126802F46042D2080261044A126802F022
:104590000F020A607047000008380240003C0240E9
:1045A00001480068704700006C0A002000B5FFF762
:1045B000F7FF04490968C1F38221034A515CC840EE
:1045C00000BD0000083802404CD9000800B5FFF7D4
:1045D000E7FF04490968C1F34231034A515CC8400E
:1045E00000BD0000083802404CD900082DE9F04712
:1045F000002400250026A146A2463F48006800F09E
:104600000C0030B1042807D0082808D00C286BD142
:1046100038E0DFF8E8A06AE0DFF8E4A067E03648B9
:10462000001F006800F03F043348001F006800F4DA
:10463000800078B132483049091F0968C1F38811F8
:10464000A0FB01700146224600233846FCF7BAFA67
:1046500005460DE029482849091F0968C1F388115A
:10466000A0FB0171224600233846FCF7ABFA054651
:104670002148001F0068C0F30140401C4600B5FB04
:10468000F6FA34E01C48001F006800F03F041A48A6
:10469000001F006800F4800078B119481649091F0E
:1046A0000968C1F38811A0FB01700146224600236E
:1046B0003846FCF787FA05460EE010480E49091FF8
:1046C0000968C1F38811A0FB01700146224600234E
:1046D0003846FCF777FA05460748001F0068C0F324
:1046E0000279B5FBF9FA02E0DFF810A000BF00BFC5
:1046F0005046BDE8F0870000083802400024F4006E
:1047000000127A00F8B504460025207800F0010078
:1047100000286FD0FD48006800F00C0004281BD072
:10472000FA48006800F00C00082807D1F748001F7D
:10473000006800F48000B0F5800F0DD0F3480068E9
:1047400000F00C000C2813D1F048001F006800F4A2
:104750008000B0F5800F0BD1EC4808380068C0F33A
:104760004040002859D06068002856D10120F8BD8B
:1047700000BF6068B0F5803F08D1E44808380068A1
:1047800040F48030E149083908601EE06068B0F507
:10479000A02F0DD1DD480838006840F48020DB49A7
:1047A000083908600846006840F4803008600CE072
:1047B000D6480838006820F48030D44908390860A9
:1047C0000846006820F48020086000BF606890B14F
:1047D000FFF70EFA054606E0FFF70AFA401B6428C9
:1047E00001D90320C3E7C94808380068C0F3404036
:1047F0000028F1D011E0FFF7FBF9054606E0FFF7CE
:10480000F7F9401B642801D90320B0E7BF480838F6
:104810000068C0F340400028F1D1207800F0020089
:1048200002286BD1B948006800F00C00B8B1B74855
:10483000006800F00C00082805D1B448001F00688B
:1048400000F4800058B1B148006800F00C000C285A
:104850001CD1AE48001F006800F48000B0B9AB481E
:1048600008380068C0F3400020B1E068012801D09A
:1048700001207CE7A5480838006820F0F80021698D
:1048800040EAC100A1490839086037E0E06800B398
:1048900001209F490860FFF7ABF9054606E0FFF7E6
:1048A000A7F9401B022801D9032060E79748083880
:1048B0000068C0F340000028F1D094480838006830
:1048C00020F0F800216940EAC100904908390860E9
:1048D00014E000208E490860FFF78AF9054606E0DB
:1048E000FFF786F9401B022801D903203FE78748DC
:1048F00008380068C0F340000028F1D1207800F0AB
:10490000080008282CD16069A8B1012081490860FD
:10491000FFF76EF9054606E0FFF76AF9401B02282B
:1049200001D9032023E779486C300068C0F34000C8
:104930000028F1D014E0002076490860FFF758F90C
:10494000054606E0FFF754F9401B022801D9032071
:104950000DE76E486C300068C0F340000028F1D1CC
:10496000207800F00400042870D100266748383011
:10497000006800F0805090B900BF002000906348AC
:104980003830006840F0805060493831086008468F
:10499000006800F08050009000BF00BF01265E4814
:1049A000006800F48070B0B95B48006840F4807023
:1049B00059490860FFF71CF9054606E0FFF718F9AA
:1049C000401B022801D90320D1E65348006800F4B7
:1049D00080700028F2D000BFA068012808D14B48A1
:1049E0006830006840F001004849683108601DE007
:1049F000A06805280DD145486830006840F00400E3
:104A00004249683108600846006840F001000860CB
:104A10000CE03E486830006820F001003B496831F6
:104A200008600846006820F00400086000BFA06825
:104A3000A8B1FFF7DDF8054609E0FFF7D9F8401BFC
:104A400041F28831884202D9032090E626E02F48BF
:104A500068300068C0F340000028EED013E0FFF794
:104A6000C7F8054608E0FFF7C3F8401B41F288315C
:104A7000884201D903207AE6244868300068C0F3F0
:104A800040000028EFD1012E07D1204838300068BF
:104A900020F080501D493831086000BFA069E8B39C
:104AA0001A48006800F00C00082862D0A0690228AB
:104AB0004AD1002016490866FFF79AF8054606E035
:104AC000FFF796F8401B022801D903204FE60F4854
:104AD00008380068C0F340600028F1D1D4E907012C
:104AE0000843616A40EA81110122A06AC2EB5000CA
:104AF00041EA00412C20005D41EA00613020005D68
:104B000041EA00700149091F086008E008380240C6
:104B100000004742800E4742007000402BE0012019
:104B200016490866FFF764F8054606E0FFF760F8E7
:104B3000401B022801D9032019E611480068C0F380
:104B400040600028F2D016E000200C490866FFF70C
:104B50004FF8054606E0FFF74BF8401B022801D945
:104B6000032004E606480068C0F340600028F2D144
:104B700001E00120FBE50020F9E5000000004742CC
:104B80000038024070B5044600252068C06820F057
:104B9000A0002168C860FFF72BF8054607E0FFF783
:104BA00027F8401BB0F57A7F01D9032070BD20683B
:104BB000C06800F020000028F1D00020F6E70000D7
:104BC00004480068C06840F0040002490968C860F1
:104BD00070470000C421002004480068C06820F02D
:104BE000040002490968C86070470000C421002021
:104BF00070B504460D4604222946206800F0C8FD21
:104C00002068406C40F400402168486420680068D7
:104C100040F0010021680860002070BD10B5044616
:104C20000CB9012010BD94F8390028B9002084F88F
:104C30003800204600F00CF8022084F83900211DCD
:104C4000206800F025FD012084F839000020E9E704
:104C50007047000030B504460D4601222946206801
:104C600000F088FD0C492068884203D00B49206879
:104C7000884201D1012000E0002028B12068406C6A
:104C800040F40040216848642068006840F001005A
:104C900021680860002030BD000001400004014090
:104CA00070B504460D46164600BF94F8380001283A
:104CB00001D1022070BD012084F8380000BF02201D
:104CC00084F8390036B1042E1BD0082E31D00C2EBA
:104CD0005ED145E02946206800F068FD20688069C3
:104CE00040F00800216888612068806920F0040095
:104CF0002168886120688069296908432168886182
:104D000047E02946206800F089FD2068806940F46A
:104D10000060216888612068806920F480602168D3
:104D2000886120688069296940EA012021688861DA
:104D30002FE02946206800F0ADFD2068C06940F0F2
:104D400008002168C8612068C06920F0040021685B
:104D5000C8612068C069296908432168C86118E0F2
:104D60002946206800F0D2FD2068C06940F4006048
:104D70002168C8612068C06920F480602168C8612A
:104D80002068C069296940EA01202168C86100E003
:104D900000BF00BF012084F8390000BF002084F864
:104DA000380000BF00BF85E710B504460CB90120EC
:104DB00010BD94F8390028B9002084F83800204646
:104DC00000F00CF8022084F83900211D206800F062
:104DD0005FFC012084F839000020E9E770470000FB
:104DE00030B504460D4601222946206800F0C2FC79
:104DF0000C492068884203D00B492068884201D1C1
:104E0000012000E0002028B12068406C40F4004000
:104E1000216848642068006840F00100216808604B
:104E2000002030BD000001400004014008B50168C9
:104E3000096801F0010119B10168496800911AE09F
:104E400001680968C1F3400119B10168496800911E
:104E500011E001680968C1F3800119B1016849686E
:104E6000009108E001680968C1F3C00119B1016847
:104E70004968009100BF08BD2DE9F047044620684D
:104E800005682068C668206847694FF00008C14679
:104E900005F00F08B8F1000F0AD105F0200038B175
:104EA00006F0200020B1204600F0E2FDBDE8F087CA
:104EB000B8F1000F6DD007F0010018B906F490703A
:104EC000002866D005F0010030B106F4807018B1FA
:104ED000E06B40F00100E06305F0040030B107F042
:104EE000010018B1E06B40F00200E06305F0020041
:104EF00030B107F0010018B1E06B40F00400E0634E
:104F000005F0080030B107F0010018B1E06B40F087
:104F10000800E063E06B68B305F0200028B106F0FC
:104F2000200010B1204600F0A3FD20684069C0F3C6
:104F30008019E06B00F0080010B9B9F1000F22D021
:104F4000204600F075FD2068406900F04000B0B1D7
:104F50002068406920F0400021684861606B50B1D2
:104F60001748616B0865606BFEF72EFE10B1606B31
:104F7000016D88470CE02046FFF758FF08E0204607
:104F8000FFF754FF04E02046FFF750FF0020E063E6
:104F90008CE705F0800030B106F0800018B12046A3
:104FA00000F068FF82E705F0400030B106F04000F5
:104FB00018B1204600F04CFD78E700BF76E700000E
:104FC0001D5A000810B504460CB9012010BDA06997
:104FD00000B100E000BF94F8390028B9002084F83F
:104FE0003800204600F027F8242084F83900206893
:104FF000C06820F400502168C860204600F086FD9B
:105000002068006920F490402168086120684069A8
:1050100020F02A00216848612068C06840F40050F0
:105020002168C8600020E063202084F8390084F8FB
:105030003A000020CAE77047704701680968C1F369
:10504000801119B16FF0400102681160704730B5EE
:10505000036891FAA1F4B4FA84F465000324AC4027
:10506000A34391FAA1F4B4FA84F4640002FA04F4BC
:105070002343036030BD10B543688B4301FB02F44A
:105080002343436010BD30B5C36891FAA1F4B4FA6C
:1050900084F465000324AC40A34391FAA1F4B4FA6C
:1050A00084F4640002FA04F42343C36030BD2DE9A4
:1050B000F041054605F12800FBF74FFA074617B9FE
:1050C0000020BDE8F081EC6A07E00121A01CFBF79D
:1050D000CFF9064606B902E0A468002CF5D100BF5E
:1050E0002046EEE72DE9F04105460C46286BA0B1BD
:1050F0002E6B002701E0374676681EB1F078E17824
:105100008842F8DB6660A7600EB1B46000E0EC6234
:105110000FB17C6006E02C6304E000206060A060BA
:10512000EC622C6305F12800FBF7E3F9BDE8F081A0
:105130004A681AB1D1E901329A6001E08A68C26214
:105140008A681AB1D1E901235A6001E04A68026312
:1051500070474FF0E0200069002070470948007850
:1051600030B10020074908704FF0806006490860A0
:105170004FF0E020006940F001004FF0E0210861AD
:1051800000207047440A002004ED00E04FF0FF309B
:105190007047000010B502460B4612B94FF0FF30C1
:1051A00010BD0D480068B0FBF2F0411EB1F1807FE8
:1051B00002D34FF0FF30F3E7FF240848C472062003
:1051C0004FF0E0242061204641610020A061044CA2
:1051D000207000BFE4E700006C0A002018ED00E03A
:1051E000440A002070B5054605F10C00FBF76CFA87
:1051F00008B1012400E00024204670BD70B50446CB
:10520000E18904F10C00FBF736FAE189884201DA02
:10521000012500E00025284670BD10B5012000F0F2
:1052200009F830B900F074F818B901E000BF00BF08
:10523000FCE710BD10B5AAB0044600BF00200090E6
:105240003148006840F080502F49086008460068E7
:1052500000F08050009000BF00BF00BF0020009011
:105260002A48006840F44040284908600846006821
:1052700000F44040009000BF00BF01201D9014B911
:1052800000041E9002E04FF4A0201E900220239004
:1052900041051DA8C161082101624FF4B47141624A
:1052A000022181620721C16202210163FFF72AFA0C
:1052B00010B100202AB010BDFEF76EFD08B100202D
:1052C000F8E7082007904FF4C07108910821099170
:1052D00040010190C004169001A8FEF7D3FD0F20F5
:1052E00018900220199000201A904FF4A0501B90A3
:1052F0004FF480501C90052118A8FFF76FF808B1F3
:105300000020D7E70120D5E7403802400070004078
:1053100000B5ABB000BF002001903148006840F0FC
:1053200080502F4908600846006800F080500190C6
:1053300000BF00BF00BF002001902A48006840F471
:105340004040284908600846006800F44040019049
:1053500000BF00BF03201E900120219000201F905D
:10536000102022900220249000211EA8C16110214B
:1053700001624FF4B4714162022181620721C1626E
:105380000621C162FFF7BEF910B100202BB000BDAD
:10539000FEF702FD08B10020F8E708200890C021C0
:1053A000099108210A9140010290C004179002A8B7
:1053B000FEF768FD0F20199002201A9000201B9024
:1053C0004FF4A0501C904FF480501D90052119A857
:1053D000FFF704F808B10020D8E70120D6E7000065
:1053E000403802400070004038B504460025082CC3
:1053F00071D2DFE804F00416283A4C5E71834C4DFC
:1054000000BF002000904B48006840F0010049496F
:1054100008600846006800F00100009000BF00BF6F
:1054200082E0454D00BF002000904248006840F0F7
:105430000200404908600846006800F00200009041
:1054400000BF00BF70E03D4D00BF00200090394814
:10545000006840F00400374908600846006800F022
:105460000400009000BF00BF5EE0354D00BF00208B
:1054700000903048006840F008002E490860084657
:10548000006800F00800009000BF00BF4CE02D4D08
:1054900000BF002000902748006840F01000254918
:1054A00008600846006800F01000009000BF00BFD0
:1054B0003AE0254D00BF002000901E48006840F0F3
:1054C00020001C4908600846006800F02000009099
:1054D00000BF00BF28E023E01C4D00BF002000906B
:1054E0001448006840F0400012490860084600680F
:1054F00000F04000009000BF00BF15E0144D00BF59
:10550000002000900B48006840F0800009490860C6
:105510000846006800F08000009000BF00BF03E074
:105520000CA003F071F900BF00BF284638BD000091
:1055300000000240303802400004024000080240EF
:10554000000C02400010024000140240001802400B
:10555000001C024050696E6D6170206572726F723E
:105560003A2077726F6E6720706F7274206E756D5F
:105570006265722E0000000070B500200022022338
:1055800000240221274D2D6805F00C0020B10428CD
:1055900006D0082834D107E0234D244E356033E08F
:1055A000234D224E35602FE01E4D2D1F2D68C5F373
:1055B00080541C4D2D1F2D6805F03F0154B11C4D2A
:1055C000B5FBF1F5174E361F3668C6F3881605FB96
:1055D00006F209E0144DB5FBF1F5124E361F3668A0
:1055E000C6F3881605FB06F20E4D2D1F2D68C5F378
:1055F00001456D1C6B00B2FBF3F50C4E356003E00A
:10560000094D0A4E356000BF00BF064D2D68C5F339
:105610000315084E705D054D2D68C540034E35607D
:1056200070BD0000083802400024F4006C0A00201D
:1056300000127A003CD900081148006840F470005C
:105640000F4908600F48006840F001000D490860EC
:1056500000200C49083108600A4800680A490840DF
:10566000084908600948091D0860081F006820F4FF
:105670008020091F0860002002490C310860704733
:1056800088ED00E000380240FFFFF6FE10300024F5
:10569000002202682C4B98420ED0B0F1804F0BD004
:1056A0002A4B984208D02A4B984205D0294B984261
:1056B00002D0294B984201D1012300E000231BB105
:1056C00022F070024B681A431F4B984220D0B0F171
:1056D000804F1DD01D4B98421AD01D4B984217D0B9
:1056E0001C4B984214D01C4B984211D01B4B984233
:1056F0000ED01B4B98420BD01A4B984208D01A4B35
:10570000984205D0194B984202D0194B984201D1CA
:10571000012300E000231BB122F44072CB681A433E
:1057200002608B68C3620B688362074B984202D0A9
:10573000094B984201D1012300E000230BB10B6912
:1057400003630123436170470000014000040040EF
:1057500000080040000C00400004014000400140EF
:10576000004401400048014000180040001C004077
:105770000020004030B50023012404FA01F3046A3C
:105780009C430462046A02FA01F52C43046230BDB2
:1057900030B50023042404FA01F3046A9C43046234
:1057A000046A02FA01F52C43046230BD30B50024CE
:1057B00000220023056A25F001050562026A43689C
:1057C000846924F0700424F003040D682C4322F053
:1057D00002028D682A430F4DA84202D00E4DA84206
:1057E00001D1012500E000256DB122F00802CD684D
:1057F0002A4322F0040223F4807323F400734D69DA
:105800002B438D692B43436084614D68456302627D
:1058100030BD0000000001400004014030B500240C
:1058200000220023056A25F010050562026A43681C
:10583000846924F4E04424F440740D6844EA0524A7
:1058400022F020028D6842EA0512104DA84202D0D3
:105850000F4DA84201D1012500E0002585B122F0BD
:105860008002CD6842EA051222F0400223F48063F0
:1058700023F400634D6943EA85038D6943EA850398
:10588000436084614D688563026230BD0000014061
:105890000004014030B5002400220023056A25F4ED
:1058A00080750562026A4368C46924F0700424F0BC
:1058B00003040D682C4322F400728D6842EA05222D
:1058C000104DA84202D0104DA84201D1012500E0A0
:1058D000002585B122F40062CD6842EA052222F457
:1058E000806223F4805323F400534D6943EA051387
:1058F0008D6943EA05134360C4614D68C563026264
:1059000030BD0000000001400004014030B500221D
:1059100000230024056A25F480550562036A446863
:10592000C26922F4E04222F440720D6842EA052284
:1059300023F400538D6843EA05330A4DA84202D090
:10594000094DA84201D1012500E0002525B124F42C
:1059500080444D6944EA85144460C2614D68056421
:10596000036230BD00000140000401402DE9F04118
:1059700007460E46154605F0020080B905F0010005
:1059800030B1314607F12800FAF78DFF044615E0E3
:10599000314607F12800FAF799FF04460EE0BC6A89
:1059A00005F0010018B104EA0600B04205D105F087
:1059B000010018B904EA060000B900242046BDE839
:1059C000F081000030B5024600230D4C606C03E00E
:1059D0000469091B0346C06810B104698C42F7D9F9
:1059E00011619360D06020B104691569641B046182
:1059F00082600BB1DA6001E0014C626430BD0000EE
:105A0000900A0020C16811B1D0E902129160024AE7
:105A1000C168516470470000900A002070B50546C7
:105A2000AC6B0020E085E0842046FFF7FFF970BDF5
:105A30000168C96821F490710268D1600168496900
:105A400021F0010102685161202180F83A1070476D
:105A500010B504462068C06820F040002168C86086
:105A6000202084F839002046FFF7E7FA002010BD17
:105A700070B5044694F83A00222844D1A068B0F5E5
:105A8000805F13D1A56A206940B920684068C0F3DF
:105A900008002880A06A801CA06219E02068406885
:105AA000C0B22880A06A401CA06211E0206938B909
:105AB00020684068C1B2A26A501CA062117007E061
:105AC0002068406800F07F01A26A501CA06211703B
:105AD000E08D401E80B2E08598B92068C06820F44F
